:020000040800F2
:10000000880E002069020008611B0008631B0008BD
:10001000651B0008671B0008691B00080000000042
:100020000000000000000000000000006B1B000842
:100030006D1B0008000000006F1B0008731B000808
:10004000830200088302000883020008830200087C
:10005000830200088302000883020008830200086C
:10006000830200088302000883020008830200085C
:10007000830200088302000883020008830200084C
:10008000830200088302000883020008830200083C
:10009000830200088302000883020008830200082C
:1000A000830200088302000883020008830200081C
:1000B000830200088302000883020008830200080C
:1000C00083020008830200088302000883020008FC
:1000D00083020008830200088302000883020008EC
:1000E0008302000883020008251E0008830200081E
:1000F00083020008830200088302000883020008CC
:1001000083020008830200088302000883020008BB
:1001100083020008830200088302000883020008AB
:10012000830200088302000883020008830200089B
:10013000830200088302000883020008830200088B
:10014000830200088302000883020008771E00086B
:10015000830200088302000883020008830200086B
:10016000830200088302000883020008830200085B
:10017000830200088302000883020008830200084B
:10018000830200088302000800F002F800F05CF827
:100190000AA090E8000C82448344AAF10107DA45E2
:1001A00001D100F051F8AFF2090EBAE80F0013F0D8
:1001B000010F18BFFB1A43F00103184794370000E2
:1001C000B43700000A444FF0000C10F8013B13F064
:1001D000070408BF10F8014B1D1108BF10F8015BA0
:1001E000641E05D010F8016B641E01F8016BF9D193
:1001F00013F0080F1EBF10F8014BAD1C0C1B09D1EA
:100200006D1E58BF01F801CBFAD505E014F8016B5B
:1002100001F8016B6D1EF9D59142D6D370470000ED
:100220000023002400250026103A28BF78C1FBD8FF
:10023000520728BF30C148BF0B6070471FB503F09D
:1002400082FB1FBD10B510BD03F047FB1146FFF741
:10025000F5FF01F089F903F065FB03B4FFF7F2FF46
:1002600003BC03F069FB00000948804709480047C8
:10027000FEE7FEE7FEE7FEE7FEE7FEE7FEE7FEE756
:10028000FEE7FEE704480549054A064B70470000B3
:100290001F1C00088901000888080020880E002023
:1002A000880A0020880A0020284908432849086055
:1002B000704730B50F23C27801780125FAB1244A7E
:1002C000126801F1E02102F4E062C2F5E062C2F3DB
:1002D0000722C2F10404D3404278A24084781C4033
:1002E0001443220181F80024007800F01F018D40A2
:1002F0004009800000F1E020C0F8005130BD01F05D
:100300001F0085404809800000F1E020C0F88051BE
:1003100030BD104A114001430D48001F0160704775
:100320000B4A121D0029116801D0014300E08143EE
:10033000116070474FF0E0210428086903D020F0D5
:1003400004000861704740F00400FAE70000FA0575
:100350000CED00E080FFFF1F774910B5884206D101
:100360000121084600F099FA002101205BE0734961
:10037000884206D10121022000F08FFA00210220DC
:1003800051E06F49884206D10121042000F085FA2E
:100390000021042047E06B49884206D10121082052
:1003A00000F07BFA002108203DE06749884206D131
:1003B0000121102000F071FA0021102033E0634980
:1003C000884206D10121202000F067FA0021202078
:1003D00029E05F49884206D10121402000F05DFA02
:1003E000002140201FE05B49884206D10121802086
:1003F00000F053FA0021802015E05749884202D1CD
:10040000012184150AE05549884202D10121441591
:1004100004E0534988420AD101210415204600F026
:100420003CFA00212046BDE8104000F036BA10BD6D
:10043000F0B5002201274FF0030C0B6807FA02F514
:100440002B40AB422CD1066853000CFA03F4A643B0
:1004500006600E79D0F800E09E4046EA0E0606607F
:100460000E79012E01D0022E12D18668A643866035
:100470004E79D0F808E09E4046EA0E06866046684F
:10048000AE43466045688E799640B6B235434560C6
:10049000C568A543C560CC799C40C3681C43C46053
:1004A000521C102AC9D3F0BD4FF6FF710160002124
:1004B000017141718171C171704708B541F4803299
:1004C0000092C261C1610099C161C169C0690090B7
:1004D00008BD0246002012690A4200D00120704780
:1004E000006980B270470246002052690A4200D07B
:1004F00001207047406980B2704701837047418393
:1005000070470AB10183704741837047416170476A
:1005100042694A40426170474B07DB0E9A40C90866
:1005200010B500EB8100016A0F249C40A1430162D9
:10053000016A1143016210BD000002400004024044
:1005400000080240000C024000100240001402406B
:1005500000180240001C024000200240002402401B
:1005600000280240F848016841F001010160F64AA4
:100570000021083211600268F44B1A400260031D2A
:10058000F34A1A60F04BF34A84331A60F04A103A87
:100590001B1D1A60026822F480220260EA480C30B7
:1005A0000160181D01607047E7490022891C0A702C
:1005B0000870704702460020510901290CD0022919
:1005C0000CD0E1497431096802F01F020123934005
:1005D0000B4200D001207047DB49F4E7DA49703163
:1005E000F1E718B500204FF4A04400903120FFF748
:1005F000E1FF0099491C0091A14201D00028F5D0EB
:100600003120FFF7D7FF002800D0012018BDCE4AC7
:10061000116821F0F80141EAC00010607047CE492E
:1006200008607047C849002270310A700A700128BA
:1006300002D0042801D1052008707047C74908601E
:10064000704741EA82115A0810B5C54B029C03EB72
:1006500002421143014341EA0460BB49091D08609D
:1006600010BDBD4908667047800140EA0170B64977
:10067000843108607047B84988667047800140EA55
:100680000160B14940EA0270883108607047B249A0
:1006900008677047B049C8647047AB4B08331A68A5
:1006A000084322F0EC62104318607047A64B0833F1
:1006B0001A68084322F07842104318607047A24A33
:1006C0000832116821F003010143116070479E4810
:1006D0000830006800F00C0070479B4A083211682F
:1006E00021F0F001014311607047974A0832116808
:1006F00021F4E051014311607047934A08321168B8
:1007000021F4604141EAC0001060704770B58E4B23
:1007100008331968934C11F00C0104D066100429B9
:1007200003D0082903D004601BE0066019E0864A64
:10073000121D1168C1F38055116801F03F0115B118
:10074000B6FBF1F101E0B4FBF1F114681268C4F3F7
:1007500088146143C2F30142521C5200B1FBF2F112
:10076000016019680F2202EA11117F4A545C016886
:10077000E14041601C68072505EA9424145D21FAD4
:1007800004F484601B6805EA5333D25CD140C16035
:1007900070BDC0F30121032908D16B4B08331968E0
:1007A000724A21F4F81102400A431A606649703116
:1007B0000A68C0F30B0002430A6070476749443976
:1007C0000860704765494039086070476249C1F860
:1007D0005C0170475C4A8C321168401E21F01F0199
:1007E000014311607047584A8C3211686FF0FF0363
:1007F00021F4F85103EB0020084310607047524A7F
:100800008C32116821F440110143116070474E4A47
:100810008C32116821F440010143116070474A4A4B
:100820008C32116821F44031014311607047504906
:10083000C1F8E0017047444A30320029116801D004
:10084000014300E08143116070473F4A3432002980
:10085000116801D0014300E08143116070473A4ABA
:1008600038320029116801D0014300E08143116052
:100870007047354A40320029116801D0014300E039
:10088000814311607047304A44320029116801D019
:10089000014300E08143116070472B4A1032002968
:1008A000116801D0014300E0814311607047264A7E
:1008B00014320029116801D0014300E08143116026
:1008C0007047214A18320029116801D0014300E025
:1008D0008143116070471C4A20320029116801D001
:1008E000014300E0814311607047174A2432002918
:1008F000116801D0014300E0814311607047124A42
:1009000050320029116801D0014300E08143116099
:1009100070470D4A54320029116801D0014300E0AC
:10092000814311607047084A58320029116801D08C
:10093000014300E0814311607047034A603200299F
:10094000116817D0014316E000380240FFFFF6EAB5
:10095000103000240030002000004742800E474243
:100960000000FFFF0024F40000000020FFFCFF0F48
:1009700000104742814311607047194A00291168ED
:1009800001D0014300E081431160704714490C31EC
:100990000128086803D020F008000860704740F084
:1009A0000800FAE70E4A573A0029117801D00143AE
:1009B00000E081431170704709481030016841F030
:1009C0008071016070470146054A0020583A12685C
:1009D0000A4200D00120704701495639087070471B
:1009E00064380240354900200860091D0860091D6F
:1009F0000860091D086031493148143108607047AA
:100A000030B52E4A8379016853B313688B43136062
:100A1000111D0B680468A3430B60017911440B6836
:100A2000046823430B60254B083319680468A1430D
:100A300019601C1D21680568A943216041791029AE
:100A400005D011440A68006802430A6030BD196885
:100A5000026811431960216800680143216030BDBC
:100A60000079104402688A43026030BD00210160B1
:100A700001710C22427181717047104910310A686E
:100A800002430A60704701460C4A00201432126883
:100A90000A4200D0012070470849143108607047AD
:100AA0000146064A0020143212680A4200D0012092
:100AB000704702491431086070470000003C014053
:100AC000FFFF7F0010B501210C022046FFF70DFF4C
:100AD0002046BDE810400021FFF707BF30B542684F
:100AE000C84B0C791A400B6842EA04221343436056
:100AF0008268C54B4D791A40D1E9034323438C6882
:100B000044EA4504234313438360C26A097D22F407
:100B10007002491EC9B242EA0151C16230BD0021D2
:100B20000160017141718160C16001610121017544
:100B30007047B64B10B5D3F80423B5490A40D0E945
:100B400000142143D0E90240044321431143C3F878
:100B5000041310BD0021016041608160C1607047D5
:100B60000029816802D041F0010101E021F001017A
:100B7000816070474268A74B1A400A434260704741
:100B8000416282627047426822F01F020A4342605B
:100B900070479E490028D1F8040302D040F40000B9
:100BA00001E020F40000C1F80403704797490028D1
:100BB000D1F8040302D040F4800001E020F480006A
:100BC000C1F80403704770B5072609290AD9C5681A
:100BD000A1F10A0404EB4404A640B543A3401D431D
:100BE000C56007E0056901EB4104A640B543A34099
:100BF0001D4305611F23072A09D2446B521E02EBD5
:100C0000820293409C4391400C43446370BD0D2A83
:100C100009D2046BD21F02EB820293409C439140A5
:100C20000C43046370BDC46A0D3A02EB8202934028
:100C30009C4391400C43C46270BD816841F0804187
:100C400081607047014600208968490000D5012075
:100C500070470029816802D041F4806101E021F4ED
:100C60008061816070470029816802D041F00201F3
:100C700001E021F00201816070474268491E22F4C0
:100C8000604242EA4131416070470029416802D028
:100C900041F4006101E021F4006141607047C06CE3
:100CA00080B270475948D0F808037047002981681E
:100CB00002D041F4807101E021F4807181607047BD
:100CC0000029816802D041F4007101E021F4007133
:100CD000816070474D490028D1F8040302D040F4E8
:100CE000005001E020F40050C1F80403704770B5D3
:100CF000072609290AD9C568A1F10A0404EB4404AE
:100D0000A640B543A3401D43C56007E0056901EB5C
:100D10004104A640B543A3401D430561836BC3F363
:100D20000154121B921C02EB82021F249440A34325
:100D300091400B43836370BD826B491E22F44012C5
:100D400042EA01518163704708B50844009002608F
:100D500008BD826822F470220A438260704782686C
:100D600022F440120A4382607047816841F4800196
:100D700081607047014600208968490200D5012042
:100D800070470029416802D041F4806101E021F4FC
:100D90008061416070470029416802D041F4805170
:100DA00001E021F480514160704708B508442830C3
:100DB0000090006880B208BD01238B4041680AB1F1
:100DC000194300E0994341607047024600201268D1
:100DD0000A4200D001207047C9430160704730B516
:100DE0000246002053680C0A01258D4011682B40F3
:100DF000214202D0002B00D0012030BD6FEA11212A
:100E000001607047FFFEFFFCFDF7FFC000200140BE
:100E1000E030FCFFFFFD3FFF1CB501210820FFF77C
:100E20000AFD4FF47040009000208DF8060001216B
:100E30008DF804108DF8070003208DF80500694631
:100E40000C48FFF7F5FA1CBD1CB501210846FFF759
:100E5000F2FC0120009000208DF806008DF80400BF
:100E60008DF8070003208DF8050069460248FFF75A
:100E7000DFFA1CBD000C024000000240224841681D
:100E8000491C41608168002902D08168491E816047
:100E9000704710B51C4C2078002821D10120FFF7A5
:100EA00083FBFFF79EFB0028FBD0184801684FF436
:100EB0007A70B1FBF0F0401EB0F1807F11D24FF09C
:100EC000E0225061124BF02083F8140D0020906155
:100ED000072010610F48B1FBF0F0E06001202070A6
:100EE00010BDFEE708480078002805D04FF0E0204C
:100EF000016941F00201016170474FF0E020016992
:100F000021F0020101617047100000202400002040
:100F10000FE000E0C0C62D0008B5BD480090BD4BF5
:100F2000BD4A0121BD4801F0E5FFBD49022008701E
:100F300008BDBB4800787047002101704170817086
:100F4000C17001714171B648007870471CB5B44951
:100F50000978012901D002201CBD02218DF8001062
:100F600000218DF80110027811438DF801104278AC
:100F700041EA42018DF80110827841EA82018DF840
:100F80000110C1788DF8021001798DF803104079B5
:100F90008DF8040005226946A04802F0DEF9012020
:100FA0001CBD1CB50020009001909D4800780128D0
:100FB0004FF0020007D18DF80000052269469748DE
:100FC00002F0CBF901201CBD00210170417081703D
:100FD000C170017141718171C1710172417281727F
:100FE000C172017341738173C1730174417481745F
:100FF000C1748B48007870471CB5894A1278012A61
:1010000001D002201CBD8DF8000000208DF80100E9
:101010000A78034610438DF801004A7840EA4202FC
:101020008DF80120887842EA80028DF80120C87886
:1010300042EAC0028DF80120087942EA00128DF8D8
:101040000120487942EA40128DF80120887942EA6D
:1010500080128DF80120C87942EAC0108DF8010095
:101060008DF802300A7A43EA02008DF802004A7ACB
:1010700040EA42008DF802008A7A40EA82008DF848
:101080000200CA7A40EAC2008DF802000A7B40EAF8
:1010900002108DF802004A7B40EA42108DF80200EF
:1010A0008A7B40EA82108DF80200CA7B40EAC210B7
:1010B0008DF80200087C8DF80300487C8DF8040050
:1010C000887C8DF80500C87C8DF8060007226946EB
:1010D000524802F042F901201CBD1CB500210091CC
:1010E00001914F490978012901D002201CBD8DF8DA
:1010F000000007226946494802F02FF901201CBD73
:101100000021017041708170C17001714171817164
:10111000C171017241728172C172017341734048A1
:10112000007870470EB500213D4A0091019102916F
:101130001278012A01D002200EBD01228DF8002074
:101140008DF8011002780A438DF80120837842EA75
:1011500043028DF80120437842EA83028DF8012092
:10116000C37842EAC3028DF80120037942EA0312F0
:101170008DF80120837942EA43128DF801204379EA
:1011800042EA83128DF80120C37942EAC3128DF836
:1011900001208DF80210017A8DF80310417A8DF844
:1011A0000410817A8DF80510C17A8DF80610017B44
:1011B0008DF80710407B8DF8080009226946174812
:1011C00002F0CBF801200EBD0EB50020009001907A
:1011D000029013480078012801D002200EBD0120A2
:1011E0008DF80000092269460C4802F0B6F801208B
:1011F0000EBD0A460A4910B50978012901D002201E
:1012000010BD0146054802F0A8F8012010BD0000FD
:10121000D0010020A00000206C000020300200203F
:10122000EC01002030B58BB00024054601208DF87C
:101230001400C5488DF805400494039402948DF879
:101240000440854202D1012180150AE0BF48854251
:1012500002D10121401504E0BD48854204D101219D
:101260000015FFF710FB00944FF48030CDE90640E5
:101270004FF440700990089406A8FFF75AFC69469D
:101280002846FFF72BFC01212846FFF769FC0BB02D
:1012900030BD7CB50D4614460121FFF7CCFA032280
:1012A0008DF8042000238DF806308DF80730009467
:1012B0008DF8052069462846FFF7BAF87CBDA2499B
:1012C000884202D0A149884203D12022A1490420AA
:1012D00005E09F49884203D120229F491046D8E764
:1012E00070479949884202D09849884203D1082220
:1012F0009849042005E09649884203D11022964976
:101300002020C6E77047082292490420C1E7042242
:1013100090491046BDE702228E490420B9E7012218
:101320008C490420B5E78849884202D08749884221
:1013300003D102228949104605E08549884203D13C
:10134000082285492020A4E770477F49884202D0BF
:101350007E49884203D101228049022005E07C4970
:10136000884203D102157C49202092E770477649D4
:10137000884202D07549884203D1802278490120F1
:1013800005E07349884203D142157349202080E764
:1013900070476D49884202D06C49884203D140228F
:1013A0006F49012005E06A49884203D182156A49E4
:1013B00020206EE770476449884202D06349884222
:1013C00003D120226649012005E06149884203D10A
:1013D0008022614920205CE770475B49884202D047
:1013E0005A49884203D110225D49012005E058493D
:1013F000884203D14022584920204AE770470822FA
:101400005749012045E704225549012041E70222BE
:10141000534901203DE701225149104639E710B5F3
:101420000446F1B101291FD0022920D0032921D07F
:10143000042922D0052923D0062924D0072925D024
:10144000082926D0092927D00A2928D00B2929D0F4
:101450000C292AD00D292BD00E292CD00F292DD0C4
:101460002EE0FFF7D8FF2BE0FFF7D1FF28E0FFF7D2
:10147000CAFF25E0FFF7C3FF22E0FFF7AEFF1FE042
:10148000FFF799FF1CE0FFF784FF19E0FFF76FFFFC
:1014900016E0FFF75AFF13E0FFF745FF10E0FFF7F4
:1014A0003EFF0DE0FFF737FF0AE0FFF730FF07E0F0
:1014B000FFF729FF04E0FFF714FF01E0FFF7FFFE4D
:1014C0002046BDE81040ADE610B5012304461A469B
:1014D000FFF779FB2046FFF7B0FB02212046FFF71C
:1014E00074FC0028F9D02046BDE81040FFF7D7BBB8
:1014F00010B50120FFF75AFB1A490120087010BDF2
:1015000010B50020FFF752FB16490020087010BDEF
:1015100010B50446052301221221FFF754FB204693
:10152000FFF78BFB02212046FFF74FFC0028F9D084
:101530002046FFF7B4FB41F6C811484340F6FF715F
:10154000B0FBF1F080B210BD00200140002101404D
:101550000022014000080240001402400004024042
:10156000000002402000002000208CB082460A903B
:1015700009908146834605460446089001210820CB
:10158000FFF759F94FF000088DF81C804FF4F86010
:101590008DF81E80012706908DF81F7003268DF8A8
:1015A0001D6006A9FC48FEF743FF01210820FFF754
:1015B00042F98DF81C70F8028DF81E8006908DF8A7
:1015C0001F808DF81D6006A9F348FEF731FF00F07B
:1015D00026FBF24E01213046FFF721FF0221304663
:1015E000FFF71DFFFFF718FCFFF753FCFFF794FC14
:1015F00004A8FFF7A1FC6846FFF782FDF114E64856
:10160000FEF77DFFFFF795FC01284FF4805075D160
:10161000E14E183630800221E048FFF755FF40F2D6
:10162000A468404506D84021DB48FEF752FF08B1C8
:10163000F1200DE00221D948FFF746FF40F6FC01FA
:1016400088420DD94021D448FEF743FF40B10F2016
:101650008DF813004FF40040308004A8FFF776FCAB
:101660000121CE48FFF730FF40F2A461884206D83E
:101670004021C948FEF72DFF08B1F1200DE00121FE
:10168000C648FFF721FF40F6FC0188420DD94021F2
:10169000C148FEF71EFF40B10F208DF814004FF433
:1016A0000040308004A8FFF751FCBB494FF0000810
:1016B0001A318DF813808DF814804FF400400880A3
:1016C00004A8FFF743FC0221B448FFF7FDFE40F2F7
:1016D000A461884204D84021AF48FEF7FAFE70B1F9
:1016E0000221AE48FFF7F0FE40F6FC01884211D916
:1016F0004021A948FEF7EDFE18B10BE015E250209D
:1017000000E04F208DF808004FF40050308068460C
:10171000FFF708FD0121A148FFF7D6FE40F2A461C2
:10172000884204D840219C48FEF7D3FE68B10121CD
:101730009A48FFF7C9FE40F6FC01884210D94021C3
:101740009548FEF7C6FE10B10AE0512000E0522095
:101750008DF808004FF4005030806846FFF7E2FC37
:101760008DF808806846FFF7DDFC8B494FF4005088
:101770001A31088080218848FEF7ABFE0A99084399
:1017800013D140218448FEF7A4FE70B10120C102AC
:101790000A908148FEF7B1FE4FF4004030808DF88A
:1017A000107004A8FFF7D2FB1DE080217A48FEF7F5
:1017B00090FEC0B10A98012815D140217648FEF765
:1017C00088FE80B100200A908DF810804FF40061EF
:1017D0007148FEF794FE04A8FFF7B8FB6E494FF47A
:1017E00000401A31088080216B48FEF772FE09998B
:1017F000084304D140216848FEF76BFE40B18021C8
:101800006548FEF766FE48B30998012810D025E028
:101810000120C10209906048FEF76FFE4FF40050AE
:10182000308028208DF808006846FFF77BFC15E023
:1018300040215948FEF74DFE80B9002009908DF8EF
:1018400008804FF400615448FEF759FE6846FFF7E0
:1018500069FC51494FF400501A3108804FF48071EF
:101860004D48FEF736FE50EA0A0014D140214A489E
:10187000FEF72FFE78B14FF0010A4FF400614648A1
:10188000FEF73BFE4FF4004030808DF8117004A845
:10189000FFF75CFB1EE04FF480713F48FEF719FE36
:1018A000C0B1BAF1010F15D140213B48FEF711FE3E
:1018B00080B14FF0000A8DF8118004A8FFF746FBB5
:1018C0004FF400613448FEF71AFE33494FF40040EC
:1018D0001A3108804FF480712F48FEF7FAFD0899FD
:1018E000084304D140212C48FEF7F3FD50B12A4EA5
:1018F0004FF480713046FEF7ECFD40B308980128A4
:1019000010D024E00120C10208902348FEF7F5FD25
:101910004FF4005030802A208DF808006846FFF709
:1019200001FC14E040213046FEF7D3FD78B90020D9
:1019300008908DF808806846FFF7F4FB16494FF4CD
:1019400000501A31088081103046FEF7D8FD4FF460
:10195000007631461048FEF7BCFD50EA0B001FD060
:1019600031460D48FEF7B5FD28B3BBF1010F23D07A
:1019700059E059460848FEF7C0FD641C4FF4FA765A
:10198000E4B2304600F0DDF859460348FEF7B7FDF3
:10199000304600F0D6F805E0000C0240002001407F
:1019A0004FF4006B4FF400716B48FEF792FD002876
:1019B000DFD04FF0010B36E0012C06D0022C19D0FD
:1019C000032C4DD0042C6CD01EE08DF803706846BB
:1019D000FFF7A8FB642000F0B4F88DF80380684698
:1019E000FFF7A0FB11208DF808006846FFF79AFB6F
:1019F00004204FE08DF800708DF8027019208DF8EA
:101A000008006846FFF78EFB4FF0000B5C46CDF8F0
:101A100000808DF808806846FFF784FB4E494FF43C
:101A200000501A3108804C4E4FF480613046FEF76A
:101A300050FD50EA09004ED031153046FEF749FD01
:101A400000283FF4DFADB9F1010F7FF4DBAD012DCC
:101A50004FD0022D51D0032D6BD0042D6DD051E00D
:101A60008DF803706846FFF75DFB642000F069F8AD
:101A70008DF803806846FFF755FB16208DF80800A7
:101A80006846FFF74FFB13208DF808006846FFF704
:101A900049FB08208DF808006846FFF743FB282023
:101AA000ADE78DF800708DF801700A20A7E7414678
:101AB000B1463046FEF721FD6D1C4FF4FA76EDB2CB
:101AC000304600F03EF841464846FEF718FD3046E5
:101AD00000F037F802E04FF40068B1464FF480613F
:101AE0004E464846FEF7F5FC0028E0D04FF00109CD
:101AF00088E58DF801702B2002E08DF801703D2003
:101B00008DF808006846FFF70DFB8DF803804FF055
:101B100000098DF800804D468DF801808DF8088011
:101B20006846FFF7FFFA4FF400500B491A3108805E
:101B300068E58DF803700720E2E78DF80370082050
:101B4000DEE7064908B50A6800920A68009BD21AC7
:101B50008242FAD308BD0000000C024014000020AD
:101B60007047FEE7FEE7FEE7FEE770477047704705
:101B7000704710B5FFF782F910BD00000CB50022C8
:101B8000544900920192086840F4803008604FF494
:101B9000A043086800F4003001900098401C0090B9
:101BA000019810B900989842F3D10868800334D5A1
:101BB0000120019047484030026842F080520260A4
:101BC0004548026842F440420260424808300268D8
:101BD0000260026842F400420260026842F4A052CD
:101BE0000260031F3D4A1A600A6842F080720A6070
:101BF0000A689201FCD53A4940F205720A60016810
:101C000021F003010160016841F0020101600168F7
:101C1000C1F381010229FAD10CBD01920CBD3148FA
:101C200010B5016841F4700101602A48016841F073
:101C300001010160274A00210832116002682A4B25
:101C40001A400260031D294A1A60026822F48022A9
:101C5000026020480C300160FFF790FF21494FF0EF
:101C600000608039086010BD70B51A4D08352868CD
:101C70001F4B204910F00C0004D05E10042803D044
:101C8000082803D00B601BE00E6019E0114A121DFA
:101C90001068C0F38054106800F03F0014B1B6FB28
:101CA000F0F001E0B3FBF0F013681268C3F388139F
:101CB0005843C2F30142521C5200B0FBF2F00860DC
:101CC00028680C4AC0F30310121D105C0A68C24059
:101CD0000A6070BD003802400070004008544007A0
:101CE000003C024088ED00E0FFFFF6FE10300024CB
:101CF0000024F40024000020F0B5012185B008463E
:101D0000FEF799FD4FF4C050032600908DF8056052
:101D100002208DF804000025584F8DF806508DF8EC
:101D2000075069463846FEF783FB0A220B213846E6
:101D3000FEF7F2FB0A220C213846FEF7EDFB8DF888
:101D4000056078158DF80450012400908DF8064048
:101D50008DF8075069463846FEF76AFBA0028DF8F9
:101D6000064000908DF807408DF8056069463846BA
:101D7000FEF75EFB0A2211463846FEF7CDFB012135
:101D80008803FEF780FD01218020FEF75EFD012122
:101D90000807FEF7A0FDA6043046FEF78AFE8DF880
:101DA0000C5008208DF80D0002968DF80E4002A808
:101DB000FEF726FE3046FEF77CFE2A208DF8100046
:101DC0008DF8114004208DF812008DF8134004A8FE
:101DD000FEF76FFA3046FEF76CFE05B0F0BD08B5B1
:101DE0004FF4C060FEF760FA43208DF80000012038
:101DF0008DF8010003218DF802108DF8030068466C
:101E0000FEF757FA08BDC0EB00100021C000072202
:101E1000B0FBF2F0491C8142FCD970474FF47A7153
:101E20004843F0E7164810B5807AF0B115480168CC
:101E300021F0060101600120FEF7B6FB3120FEF71C
:101E4000B9FB0028FAD00120FEF70BFC3920FEF781
:101E5000B1FB0028FAD00220FEF731FCFEF737FC78
:101E60000828FBD1064800F01BFCBDE810404FF4E9
:101E70008020FEF71EBE024800F041BE0000024076
:101E80003002002010ED00E0F8B500260446374689
:101E90000096FC4D0320FFF7B6FFE0680069009054
:101EA0007F1CAF4201D90020F8BD00980028F1DA6C
:101EB0000098002140F0010000900098E268106155
:101EC000E06802690092491CA94202D8009AD20730
:101ED000F7D10320FFF797FF3046F8BD30B5054630
:101EE0000020EC78002C0CD105EB8202DB1C9B0857
:101EF000D2F8D02003E051F8045B1560641C9C42CA
:101F0000F9D330BD10B504460023D21C9008D4F894
:101F1000D02003E0146841F8044B5B1C8342F9D3E2
:101F2000084610BD70B500220123C27040268370A0
:101F3000154614468680012901D069B115E0C372A7
:101F40000821017004214FF0A04241709115C18019
:101F500002210172837208E0C4720C210170062113
:101F60004170C94A4FF4A061C18002F50061C0E927
:101F7000032100210AE002EB411303F5106600EB98
:101F8000810403F53063A661491C636543788B4285
:101F9000F1D802F5806141614031C0F8CC100021D8
:101FA00008E002EB411300EB810403F5A063491C38
:101FB000C4F8903003788B42F3D8002108E002EB9C
:101FC000013300EB810403F58053491CC4F8D03081
:101FD00003788B42F3D802F56062C0F80C212846E2
:101FE00070BD70B50446017A0025C068012915D07E
:101FF000C16841F04001C1602046FFF745FF617AAA
:102000004FF4502009B14FF4E810E16888631420C0
:10201000FFF704FFE078012819D020E0816B627A95
:1020200021F480310AB141F480118163E068C16814
:1020300021F0401121F42021C1602046FFF724FF48
:10204000E07801280BD1E1682A208860E2E7E068A7
:10205000816821F01E010A3141F02001816028468B
:1020600070BDC0680022816841F0010181601046A6
:102070007047C0680022816821F00101816010462C
:10208000704738B50024034622460094009840F07B
:1020900020000090009861F38A1000900098D968A1
:1020A00008617848D9680B690093521C824202D8B3
:1020B000009B9B06F7D40320FFF7A5FE204638BD02
:1020C00038B50024024621460094009840F01000E4
:1020D00000900098D36818616A48D2681369009329
:1020E000491C814202D8009BDB06F7D40320FFF78E
:1020F0008AFE204638BD10B5C3680024D86801297F
:1021000020F0C04201D019B104E042F0005201E0D9
:1021100042F08042DA603220FFF780FE204610BD98
:10212000C068406900F001007047C068406910F065
:10213000010F01D00020704701207047C06840693E
:1021400010F0010000D001207047C068416980692B
:1021500008407047C068406870470069026861F3D2
:1021600001020260704730B5C368002211469A61CF
:10217000C4686FF080436361C568541E6C60C468B6
:102180006361C468414BA361C37803B9102141F472
:102190008721C06841F0081141F4401141F08041AD
:1021A000836941F004018B430B438361104630BDCA
:1021B0002DE9F04104460027D0F80C013D46AC461D
:1021C0002B4607602069016821F4C0510160E07A64
:1021D0004026012826D103212046FFF7BEFFE168F3
:1021E00080204862E16866F31F4C60F30F0CC1F871
:1021F00028C00CEB1C4161F30F0360F31F43E06840
:10220000C0F8043103EB134060F30F03E06865F39B
:102210001F43C0F8083103EB134060F30F03E0687D
:10222000C0F80C3110212046FFF72BFF2046FFF7A6
:1022300047FF206905612069456121694FF0FF3042
:1022400088612069C56100204FF09042FF2313E0B0
:1022500004EB800CDCF818E0DEF80010002901DA4D
:10226000114600E02946CEF80010DCF818100D6188
:10227000DCF818108B60401C61788142E8D800209F
:102280001AE00000400D0300000004400008008038
:1022900004EB800CDCF854E0DEF80010002901DAD1
:1022A000114600E02946CEF80010DCF854100D610C
:1022B000DCF854108B60401C61788142E8D82069BA
:1022C000016941F480710161E078012808D103209F
:1022D00066F38A00216940F4803066F35940086350
:1022E0002046FFF740FF3846BDE8F0810146002058
:1022F00009698968C1F3410139B1012903D0022973
:1023000005D0032900D10220704703207047012027
:10231000704710B501690024896883691A68C1F3A0
:10232000410129B1012903D0022904D0032905D193
:102330006FF30A0202E06FF30A02D21C1A6000690E
:10234000416841F480714160204610BDF0B50646F9
:102350000D7800204F780124AC40034606EB85023F
:10236000012F18D0526D64F31F43146825040DD457
:102370000D8965F30A04CD78897965F3934461F397
:10238000995444F0805141F4004111603169CA69A7
:102390001A43CA61F0BD926964F30F03E5E770B5B3
:1023A0000B78044600254E7801229A40284604EB1B
:1023B0008301012E09D0496D62F31F400D60216930
:1023C000CA698243CA61284670BD896962F30F00F9
:1023D000F4E7F0B54B780A7800240125D1F814C051
:1023E00000EB8202012B17D0566D32683369BCF1C5
:1023F000000F64D08D680CEB05077F1EB7FBF5F767
:1024000067F3DC43C3F3C9476F4367F312033361D8
:10241000C378012B59D05EE097693A683E69BCF1F8
:10242000000F0DD08B686CF312069C44ACF1010CCC
:10243000BCFBF3F363F3DC46CB78012B05D008E05B
:102440006FF3120665F3DC4603E026F0C04606F1A2
:1024500000563E61C378012B0ED0CB78012B12D0F1
:102460004B69BBB10B789D4003695E6B2E435E6385
:10247000CB78012B07D00DE00D780B6900EB8505BB
:10248000AD696B61F4E703699B681B0ADB070CD03D
:1024900042F080520B7842F0044200EB83039B69C8
:1024A0001A60CA78012A03D026E042F00052F1E710
:1024B0008A8A93B20A78C968FFF710FD1CE08F681A
:1024C00067F3120365F3DC43A1E70D780B6900EBBA
:1024D00085056D6D6B61CB78012B06D14B7913B1FE
:1024E00042F0005201E042F08052097842F004428A
:1024F00000EB8100406D02602046F0BDF0B54B78E6
:1025000000254A69012B14D00B7800EB8304636D1E
:102510001E681B69E2B38A684A6162F3060323F40A
:10252000C012636D02F500221A61C278012A32D00E
:1025300037E083691F681C6932B18E68B24208D9DE
:1025400066F306044E6106E024F07F0222F4C01216
:1025500003E062F3060424F4C01202F500221A61BB
:10256000C278012A05D10C780A6900EB8404A469B9
:10257000626147F004421A60C278CAB94A69BAB1C6
:102580000A78006901219140426B0A4342630FE0DF
:10259000FFE70A7AC1E70B780A6900EB83035B6DFA
:1025A0005A61097846F0044200EB8100406D0260F8
:1025B0002846F0BD02464B780978002002EB8101E5
:1025C000012B05D0496D0A6842F400120A60704779
:1025D0008A691168002901DA41F0804141F4001153
:1025E0001160704710B503464C780A78002003EB61
:1025F0008202012C09D0526D1368C97823F40013AC
:10260000032904D0022902D003E09269F4E743F0E1
:102610008053136010BD00698169C0690840000CD7
:10262000704700EB8101496D896800694069084085
:10263000704700698169C069084080B27047426D87
:102640005C491161C178012908D1426D00F2CC5179
:102650005161406D01684FF080210160704710B5F5
:102660000446D0F81801002819D020698068C007F6
:1026700015D0A07A30B1D4F80C01D4F80C1120F0A8
:10268000030008602069416841F0010141600520B4
:10269000FFF7C4FB2069416821F00101416010BDD2
:1026A000817A00290AD001698968C90706D0D0F863
:1026B0000C11D0F80C0121F003010160704710B536
:1026C0000446012084F812010020FF2206E004EBFA
:1026D00080018B699A60496D8A60401C61788142F3
:1026E000F5D8216900200861216948612169C86124
:1026F0002169401E88612046FFF7E2FC2046BDE8C4
:1027000010401021BDE44A780978012A00EB8100CD
:1027100006D0406D006881020ED54FF4805070479E
:1027200080690068810201D510207047800301D5BF
:102730002020704730207047800302D54FF40050AE
:1027400070474FF44050704730B44C780B780025F8
:1027500000EB8303012C0BD05C6D2368B2F5805F26
:1027600017D0B2F5005F17D0B2F5405F0CD007E08C
:102770009C692368102A05D0202A0DD0302A03D066
:1027800092B113E030BC15E79A0208D54D7130BC08
:1027900028E743F4001309E043F0006306E043F048
:1027A000806040F0802301E023F40043236030BCCC
:1027B00070470000180008C070B50446FFF7B2FB70
:1027C0000120002384F8120184F814311A464025B0
:1027D00010E002EB820104EBC10181F81D0181F8D8
:1027E0001C21A1F8222181F81F31C1E94953521C53
:1027F000C1F8303161789142EBD8002010E000EB55
:10280000800104EBC10181F8753381F87403A1F8EC
:102810007A0381F87733C1E9DF53401CC1F888336C
:1028200061788142EBD82046FFF723FC2046FFF772
:10283000D8FB00212046FFF75EFC2046FFF7B8FCDE
:102840002046BDE87040FFF70CBC70B50D460E0683
:1028500001F07F0404EB840100EBC10102D501F516
:102860008E7101E001F55D71ED090C704D708A60AB
:10287000CB7000D0CC80022B01D100220A71FFF76F
:1028800065FD002070BD10B50B460C0601F07F02FF
:1028900002EB820100EBC10102D501F58E7101E06E
:1028A00001F55D710A70DA094A70FFF778FD0020C2
:1028B00010BD10B501F07F0404EB840100EBC101F1
:1028C000C1F88833C1F880230023C1F88C3381F824
:1028D000753381F87443C37801F55D71012B00D124
:1028E0000A6114F0FF0F03D0FFF773FD002010BD45
:1028F000FFF704FEFAE770B511F07F0404EB8401E2
:1029000000EBC1014FF0010581F81D5181F81C4118
:10291000C1F82821C1F82C2101F58E714FF0000279
:10292000C1E9053203D0FFF754FD002070BDFFF769
:10293000E5FDFAE70A4610B5090602F07F0306D561
:1029400003EB830100EBC10101F58E7105E002EBA1
:10295000820100EBC10101F55D7101248C700B70E7
:10296000D2094A70FFF726FE002010BD0A4610B5B6
:10297000090602F07F0306D503EB830100EBC101DA
:1029800001F58E7105E002EB820100EBC10101F55A
:102990005D7100248C700B70D2094A70FFF722FE23
:1029A000002010BD10B50A0604D501F07F01FFF725
:1029B00068FB01E0FFF784FB002010BD00690022E6
:1029C00061F30A12016811430160704700694168B0
:1029D00021F0020141600320FFF720BA006941683D
:1029E00041F0020141600320FFF718BA0A0608D53A
:1029F00001F07F0101EB810100EBC10101F58E7156
:102A000005E001EB810100EBC10101F55D71FFF70C
:102A10007ABE0B0608D501F07F0101EB810100EBC6
:102A2000C10101F58E7105E001EB810100EBC101EF
:102A300001F55D71FFF788BE2DE9F04106460024DF
:102A4000FFF7F7FD074655E0F80751D03069E1B2CE
:102A50000369426BCA4006EB810102F001028969F9
:102A600043EAC2128D681540E9071AD00125426B6E
:102A700005FA04F18A43426306EB840080698560AD
:102A8000FE48E1B20068426830469047F07801287D
:102A900007D134B996F81101042802D13046FFF766
:102AA000CEFD280704D506EB8400082580698560E3
:102AB000E80604D506EB8400102580698560680669
:102AC00004D506EB8400402580698560A80704D5FD
:102AD00006EB8400022580698560280608D521461A
:102AE000304600F076F906EB840180208969886021
:102AF0007F08641C002FA7D10120BDE8F0812DE9DB
:102B0000F04706460024FFF710FB00287ED0304631
:102B1000FFF71BFB05007AD0280303D5304600F0F1
:102B200090F90446680303D53046FFF785FF044358
:102B3000A8074FF0000A02D5F16802204861CF4F84
:102B40004FF00109002D17DAB07A30B1D6F80C0138
:102B5000D6F80C1120F0030008603069416821F0BC
:102B6000010141603868816930468847F1684FF05B
:102B70000040486144F00104280503D5304600F0C8
:102B8000F5F80443280708D53868C16830468847F7
:102B9000F1680820486144F00104E80603D5304696
:102BA00000F0A6F80443E80403D5304600F060F8CE
:102BB0000443A8041AD53046FFF7ABFBF068D0F801
:102BC0000C803046FFF792FB032847D086F802902E
:102BD000402128F47050B18000F5A050F168C86021
:102BE000F1684FF40050486144F00104E80209D54F
:102BF0003868C16930468847F1684FF480104861F1
:102C000044F00104A8020CD5386801E023E023E079
:102C1000016A30468847F1684FF40010486144F07B
:102C20000104680009D53868416A30468847F16870
:102C30004FF08040486144F0010468070BD5F0680C
:102C40004568680703D53868816A30468847F06868
:102C5000456044F001042046BDE8F08786F802A0F4
:102C60004FF4007128F47050B18000F51050B5E7B2
:102C700070B50446006900250126416821F0010174
:102C8000416029462046FFF7FCF90020FF2206E0BC
:102C900004EB80018B699A60496D8A60401C617801
:102CA0008142F5D821694FF0FF30886128462169BB
:102CB00066F30F0066F31F40C861216945F00B0001
:102CC0004861216945F00B0008612069016821F421
:102CD000FE6101602046FFF7B2FCE1684FF48050CE
:102CE000486166480068016920468847012070BD38
:102CF00070B50546C068816921F010018161E868FE
:102D0000066A06F00F0000EB800005EBC004C6F376
:102D1000434004F55D74072821D2DFE800F020204D
:102D200004202020150047F6F070064217D0C6F3A5
:102D30000A1632462846E168FFF7E4F8E0683044B6
:102D4000E060A069304409E0082205F2CC51284631
:102D5000FFF7D8F8A069C6F30A110844A061E86833
:102D6000816941F010018161012070BD38B50446D0
:102D700000208DF8000094F812018DF800003F4803
:102D8000006841692046884720698068E2684FF4FE
:102D900000615161A17AD1B1C00718D094F8150132
:102DA000012814D19DF80000032810D1D4F80C019B
:102DB000016841F001010160D4F80C01016841F0A3
:102DC000030101602E48016841F006010160012005
:102DD00038BD2DE9F0470E4601EB860100EBC1043A
:102DE0008146D4E94C01401AD4F8241104F58E74BC
:102DF000814200D20846C01C870809EB860812E011
:102E0000451AA068A84200D20546E81C8708ABB264
:102E1000F2B24846E168FFF761F8E0682844E060F4
:102E2000A0692844A061D8F81800806980B2B8422F
:102E300005D9D4E90501814201D20028E0D1012061
:102E40000AE72DE9F04105460024FFF7E4FB0746B9
:102E5000DFF8288048E0F80744D0E1B22846FFF7C1
:102E6000E0FB0646C0072AD005EB84000126416D31
:102E70008E60E978012911D1406D03E064000020E3
:102E800010ED00E0016904EB840005EBC000C1F324
:102E90001201D0F87C23511AC0F88C13D8F8000026
:102EA000E1B2026828469047E878012807D134B992
:102EB00095F81101052802D12846FFF7C0FBB0079D
:102EC00004D505EB84000226406D8660300709D5E5
:102ED000D8F8000081682846884705EB840108205F
:102EE000496D88607F08641C002FB4D1012004E67E
:102EF000002070472DE9F0411D46174688460446DC
:102F0000069EFEF7F9FE04F2E452414682E8E00034
:102F10002046FFF751FCD4F8E805006880472046BA
:102F2000BDE8F041FEF75BBF1CB50446694600F002
:102F30002EFC9DF8002012F01F010AD001290DD0AF
:102F4000022910D002F080012046FFF7F3FC002098
:102F50001CBD6946204600F021FBF8E76946204683
:102F600000F092FBF3E76946204600F0A8FBEEE78D
:102F700070B5054641B1D5F8E4058269FAB195F816
:102F8000120103282AD02BE095F8110105F55D7494
:102F9000032825D1A168E069884211D9401AE0616F
:102FA000E878012802D1E0680844E060E0698842DE
:102FB00000D3084682B22846E16800F010FA0FE01C
:102FC000D5F8E405016929B195F81201032801D16A
:102FD00028468847284600F00BFA01E0284690472B
:102FE000002070BD70B5054641B1D5F8E4054269D1
:102FF0008AB395F81201032846D047E095F81101ED
:10300000002605F58E74022833D1E169A06881425B
:103010000FD9081AE061E878012803D1D4E9021039
:103020000844E060A08BE16882B2284600F0BEF957
:103030001FE0216AB1FBF0F200FB121262B981427B
:103040000AD3606A814207D200221146284600F066
:10305000ADF966620DE016E0D5F8E405C16829B166
:1030600095F81201032801D128468847284600F028
:10307000D0F995F81601012808D14048006829695F
:10308000486085F8166101E028469047002070BD31
:1030900010B50023044640221946FFF7D6FB002353
:1030A000402280212046FFF7D0FB012084F8120146
:1030B000D4F8E815A07849688847002010BD10B5FD
:1030C0000446D0F8E80500698047032084F812011F
:1030D000002010BD10B590F8121180F813110421D2
:1030E00080F81211D0F8E805C0688047002010BDB4
:1030F00010B5D0F8E415C96901B18847002010BDAA
:1031000010B50446D0F8E405026820469047D4F88C
:10311000E80580688047002010BD10B5D0F8E42590
:1031200052689047002010BD10B5D0F8E415096A28
:103130008847002010BD10B5D0F8E415496A8847CB
:10314000002010BD10B50446D0F8E805406980475E
:10315000012084F81501002010BD10B50446D0F8F8
:10316000E80580698047D4F8E405002142682046DC
:103170009047002084F8150110BD00006800002071
:10318000122008801A487047042008801848001F41
:1031900070470A4610B5174920B117A000F019FB77
:1031A000144810BD1CA0F9E710B50A46114922A029
:1031B00000F00FFB0F4810BD0A4610B50D4920B1B5
:1031C00022A000F006FB0B4810BD24A0F9E710B5C3
:1031D0000A46084925A000F0FCFA064810BD10B5C3
:1031E0000A46044924A000F0F4FA024810BD000089
:1031F0008C000020F0010020544D205553422048FF
:1032000049442064657669636520696E20465320D1
:103210006D6F646500000000544D205553422048F6
:1032200049442064657669636520696E20485320AF
:103230006D6F64650000000053544D6963726F65E3
:103240006C656374726F6E69637300003030303088
:103250003030303030313143000000003030303019
:1032600030303030303131420000000048494420D5
:10327000436F6E666967000048494420496E746573
:10328000726661636500000010B5044603230422E2
:103290008121FFF7DAFA0323042201212046FFF7F8
:1032A000D4FA002010BD10B504468121FFF7EBFAD7
:1032B00001212046FFF7E7FA002010BD70B500227B
:1032C0000C78314D134614F060041DD0202C42D1EF
:1032D0004A78022A14D0032A0AD00A2A0CD00B2AD0
:1032E00003D000F0AFF8022070BD8878686032E04B
:1032F00025490122091D26E04888000AA8602AE025
:103300002149012208311EE04C78062C04D00A2CF9
:103310001CD00B2C1FD11CE04C882225B5EB142FA0
:1033200006D1CA88C52A00D9C522174B2E3309E019
:103330002125B5EB142F05D1134BCA881E33092A5A
:1033400000D90922194600F021F804E001220E49B3
:10335000F9E788782860002070BD10B5134690F812
:103360001221032A03D10A468121FFF7C4FA002063
:1033700010BD2220088004480C30704710B5812110
:10338000FFF710FB002010BDCC00002010B5C0F8E6
:103390003C210223C0F8382180F811311346002463
:1033A0000A462146FFF7A7FA204610BD10B513467E
:1033B00000240A462146FFF79EFA204610BD10B5AC
:1033C000C0F894230323C0F8902380F811311346EA
:1033D00000240A462146FFF76CFA204610BD10B5BE
:1033E000134600240A462146FFF763FA204610BD23
:1033F00070B505460024042085F8110123462246B5
:1034000021462846FFF777FA2846FFF718F92046A5
:1034100070BD70B505460024052085F811012346CE
:10342000224621462846FFF744FA2846FFF707F9C7
:10343000204670BD01EB810100EBC100B0F88C03A8
:1034400080B2704710B504468021FFF773FA00215F
:103450002046FFF76FFA2046BDE81040FFF7EFB8AF
:1034600070B50A46FB4D897804462970012905D8B4
:1034700094F81201022806D003280BD02046BDE89C
:1034800070401146DEE7A1B184F81011032084F8E2
:1034900012010BE091B194F81001884209D0014665
:1034A0002046FFF73AFE297884F810112046FFF7EE
:1034B00027FE2046BDE87040FFF79ABF022084F83F
:1034C000120184F810112046FFF727FEF1E738B506
:1034D000044648880D46010A04295AD2DFE801F063
:1034E00059021420D4F8EC15A0780A686946904770
:1034F0000146E888402803D094F81201012837D10A
:103500000820ADF8000037E0D4F8E415A0788A6A06
:1035100069469047014602204870C4F8F01527E03C
:10352000C0B2062835D2DFE800F003080D12171CE0
:10353000D4F8EC15A0784A6817E0D4F8EC15A07818
:103540008A6812E0D4F8EC15A078CA680DE0D4F8C7
:10355000EC15A0780A6908E0D4F8EC15A0784A695F
:1035600003E0D4F8EC15A0788A69694690470146D3
:10357000BDF8000000280BD0EA88002A08D080B2ED
:10358000824200D90246ADF800202046FFF7FEFE39
:1035900038BD29462046FFF755FF38BD2DE9F041DB
:1035A0004A78002701260A2A43D2DFE802F03C5578
:1035B0004252420805422A27FFF789FF61E004468C
:1035C0008888C8B9C888B8B9887800F07F0594F8A9
:1035D0001201032810D084F8145129462046FFF721
:1035E000EDF92046FFF704FF1DB1022084F8120117
:1035F00047E084F8126144E020461AE0FFF730FF0C
:103600003FE0CA88012A14D190F81221022A02D080
:10361000032A0ED103E08F490122083116E001226E
:1036200000F5887112E090F81221022A04D0032AD2
:1036300002D0FFF707FF24E08649CE60D0F81821BA
:103640000AB10322CA60834902220C31FFF79EFEB1
:1036500017E000F0E1F814E0044690F812010228A7
:1036600001D00328C8D1488801280AD10020C4F815
:103670001801D4F8E4058268204690472046FFF7F9
:10368000B7FE3846BDE8F08170B5054690F81201E6
:1036900000260C4603280DD1207901280AD8D5F838
:1036A000E405826828469047E08830B92846FFF74D
:1036B0009FFE02E02846FFF7C5FE304670BD70B59C
:1036C0000D46044609796878002658B3012816D0BB
:1036D000032831D194F8120102282FD0032827D1D2
:1036E000688828B921B1802902D02046FFF722F945
:1036F000D4F8E40529468268204690470EE094F805
:10370000120102281AD0032812D16888A0B929B161
:10371000802903D02046FFF729F9E9E72046FFF783
:1037200067FE09E094F81201022807D003280DD0A3
:1037300029462046FFF786FE304670BD0029FBD0A3
:103740008029F9D02046FFF7F5F8F5E7414A080649
:103750004FF000034FF0010508D501F07F0000EBAA
:10376000800004EBC00090F81E0105E001EB810031
:1037700004EBC00090F8760308B1556000E0536098
:1037800034490222091D2046FFF700FED4E790F8D5
:10379000CC250A7090F8CD254A7090F8CE2590F887
:1037A000CF3502EB03224A8090F8D02590F8D1352E
:1037B00002EB03228A8090F8D22590F8D33502EBF1
:1037C000032292B2CA800121C0F8402180F8111171
:1037D000704770B5002300281DD00446002502E084
:1037E0006D1CEDB2641C2678002EF9D1022404EB86
:1037F00045041480CC545B1C0322CA5400245B1C77
:1038000006E0CA545B1CDAB28C54521CD3B2401C82
:103810000278002AF5D170BD10B50446488801220F
:1038200001280FD0022833D1888810F0FF0F2FD144
:1038300021694968000A062821D2DFE800F0200D3E
:103840001115191DC4F81821D4F8E4058268204622
:10385000904718E0C001002021F0700110310EE007
:1038600021F0700120310AE021F07001303106E0D2
:1038700021F07001403102E021F070015031054823
:10388000016084F816212046BDE81040FFF7B0BD66
:1038900010BD0000680000200D490220087070472C
:1038A0000B490220087070470949012008707047D1
:1038B00007490220087070470549022008707047C8
:1038C00003490220087070470149022008707047C0
:1038D000EC010020704770477047754600F028F8EB
:1038E000AE4605006946534620F00700854618B0ED
:1038F00020B5FCF7C7FCBDE820404FF000064FF0B4
:1039000000074FF000084FF0000B21F00701AC4614
:10391000ACE8C009ACE8C009ACE8C009ACE8C00933
:103920008D4670470446AFF300802046FCF795FCB7
:10393000004870472408002001491820ABBEFEE76C
:103940002600020070474FF04070E1EE100A704709
:103950007039000800000020F0010000C4010008D8
:103960009C3A0008F0010020980C0000200200089A
:10397000412D0102030404051506070809847A0392
:103980000A692813712F1B08E5041A290413F13062
:103990001B0891041AD5041ABF041329311B0837D8
:1039A000041A45041A5B04223842201A810C1A8931
:1039B000041AA9041A93041AB9041ACF041ADF04CA
:1039C0001704030904120132021640830410571A27
:1039D000026A22011389321B08A7041ABD04818BD5
:1039E0007D330C81DA7314140902221301011DE0E6
:1039F000320904B52A031214211101140122C5163B
:103A0000070581030410110A05010906A1018501BA
:103A1000050719E029E71518132501750195088197
:103A20000295017508810395067508141A651E1123
:103A3000142965811AC02F1702A1010901A12809C3
:103A40008502050919012903333D950375013319D1
:103A5000541922281130093109381581257F75083C
:103A600095038106C0362B05A1343A03343A10344D
:103A70002A1034592E5C320933309C048102300AFA
:103A800024043001111399381B08A1041AA9041A3F
:0C3A9000C1041AC9041AB1041AB9044197
:040000050800026984
:00000001FF
